{
  "_format": "hh-sol-artifact-1",
  "contractName": "Fruit_Types",
  "sourceName": "contracts/Fruit_Types.sol",
  "abi": [
    {
      "inputs": [],
      "stateMutability": "payable",
      "type": "constructor"
    },
    {
      "anonymous": false,
      "inputs": [
        {
          "indexed": true,
          "internalType": "address",
          "name": "from",
          "type": "address"
        },
        {
          "indexed": false,
          "internalType": "uint256",
          "name": "timestamp",
          "type": "uint256"
        },
        {
          "indexed": false,
          "internalType": "string",
          "name": "FruitName",
          "type": "string"
        }
      ],
      "name": "NewFruit",
      "type": "event"
    },
    {
      "inputs": [
        {
          "internalType": "string",
          "name": "_FruitName",
          "type": "string"
        }
      ],
      "name": "fruittypes",
      "outputs": [],
      "stateMutability": "nonpayable",
      "type": "function"
    },
    {
      "inputs": [],
      "name": "getAllFruits",
      "outputs": [
        {
          "components": [
            {
              "internalType": "address",
              "name": "participant",
              "type": "address"
            },
            {
              "internalType": "string",
              "name": "FruitName",
              "type": "string"
            },
            {
              "internalType": "uint256",
              "name": "timestamp",
              "type": "uint256"
            }
          ],
          "internalType": "struct Fruit_Types.Fruit[]",
          "name": "",
          "type": "tuple[]"
        }
      ],
      "stateMutability": "view",
      "type": "function"
    },
    {
      "inputs": [],
      "name": "getTotalFruitTypes",
      "outputs": [
        {
          "internalType": "uint256",
          "name": "",
          "type": "uint256"
        }
      ],
      "stateMutability": "view",
      "type": "function"
    },
    {
      "inputs": [
        {
          "internalType": "address",
          "name": "",
          "type": "address"
        }
      ],
      "name": "lastFruitAt",
      "outputs": [
        {
          "internalType": "uint256",
          "name": "",
          "type": "uint256"
        }
      ],
      "stateMutability": "view",
      "type": "function"
    }
  ],
  "bytecode": "0x60806040526200004f6040518060400160405280601981526020017f57652068617665206265656e20636f6e737472756374656421000000000000008152506200007760201b620006811760201c565b606444426200005f91906200017c565b6200006b9190620001e6565b600181905550620002dc565b62000117816040516024016200008e9190620002b8565b6040516020818303038152906040527f41304fac000000000000000000000000000000000000000000000000000000007bffffffffffffffffffffffffffffffffffffffffffffffffffffffff19166020820180517bffffffffffffffffffffffffffffffffffffffffffffffffffffffff83818316178352505050506200011a60201b60201c565b50565b60008151905060006a636f6e736f6c652e6c6f679050602083016000808483855afa5050505050565b6000819050919050565b7f4e487b7100000000000000000000000000000000000000000000000000000000600052601160045260246000fd5b6000620001898262000143565b9150620001968362000143565b9250828201905080821115620001b157620001b06200014d565b5b92915050565b7f4e487b7100000000000000000000000000000000000000000000000000000000600052601260045260246000fd5b6000620001f38262000143565b9150620002008362000143565b925082620002135762000212620001b7565b5b828206905092915050565b600081519050919050565b600082825260208201905092915050565b60005b838110156200025a5780820151818401526020810190506200023d565b60008484015250505050565b6000601f19601f8301169050919050565b600062000284826200021e565b62000290818562000229565b9350620002a28185602086016200023a565b620002ad8162000266565b840191505092915050565b60006020820190508181036000830152620002d4818462000277565b905092915050565b61144a80620002ec6000396000f3fe608060405234801561001057600080fd5b506004361061004c5760003560e01c80631dcab6ec14610051578063bfd4b4a31461006d578063c7ea65691461009d578063cdd5e563146100bb575b600080fd5b61006b60048036038101906100669190610a74565b6100d9565b005b61008760048036038101906100829190610b1b565b6104cd565b6040516100949190610b61565b60405180910390f35b6100a56104e5565b6040516100b29190610b61565b60405180910390f35b6100c3610530565b6040516100d09190610d2b565b60405180910390f35b42601e600360003373ffffffffffffffffffffffffffffffffffffffff1673ffffffffffffffffffffffffffffffffffffffff168152602001908152602001600020546101269190610d7c565b10610166576040517f08c379a000000000000000000000000000000000000000000000000000000000815260040161015d90610e0d565b60405180910390fd5b42600360003373ffffffffffffffffffffffffffffffffffffffff1673ffffffffffffffffffffffffffffffffffffffff16815260200190815260200160002081905550606460015442446101bb9190610d7c565b6101c59190610d7c565b6101cf9190610e5c565b6001819055506102166040518060400160405280601681526020017f52616e646f6d20232067656e6572617465643a2025640000000000000000000081525060015461071a565b60016000808282546102289190610d7c565b9250508190555061026f6040518060400160405280601c81526020017f25732068617320656e746572656420612066727569742074797065210000000081525033836107b6565b600260405180606001604052803373ffffffffffffffffffffffffffffffffffffffff16815260200183815260200142815250908060018154018082558091505060019003906000526020600020906003020160009091909190915060008201518160000160006101000a81548173ffffffffffffffffffffffffffffffffffffffff021916908373ffffffffffffffffffffffffffffffffffffffff16021790555060208201518160010190816103279190611099565b5060408201518160020155505060326001541161047a5761037d6040518060400160405280600781526020017f257320776f6e210000000000000000000000000000000000000000000000000081525033610855565b6000655af3107a40009050478111156103cb576040517f08c379a00000000000000000000000000000000000000000000000000000000081526004016103c2906111dd565b60405180910390fd5b60003373ffffffffffffffffffffffffffffffffffffffff16826040516103f19061122e565b60006040518083038185875af1925050503d806000811461042e576040519150601f19603f3d011682016040523d82523d6000602084013e610433565b606091505b5050905080610477576040517f08c379a000000000000000000000000000000000000000000000000000000000815260040161046e906112b5565b60405180910390fd5b50505b3373ffffffffffffffffffffffffffffffffffffffff167f5fe14755ffe6159adbb0c51c1e6df3465c744d35f04f013b5e1668f9f36a6c7842836040516104c292919061130e565b60405180910390a250565b60036020528060005260406000206000915090505481565b60006105286040518060400160405280601781526020017f576520686176652025642066727569742074797065732100000000000000000081525060005461071a565b600054905090565b60606002805480602002602001604051908101604052809291908181526020016000905b8282101561067857838290600052602060002090600302016040518060600160405290816000820160009054906101000a900473ffffffffffffffffffffffffffffffffffffffff1673ffffffffffffffffffffffffffffffffffffffff1673ffffffffffffffffffffffffffffffffffffffff1681526020016001820180546105dd90610ebc565b80601f016020809104026020016040519081016040528092919081815260200182805461060990610ebc565b80156106565780601f1061062b57610100808354040283529160200191610656565b820191906000526020600020905b81548152906001019060200180831161063957829003601f168201915b5050505050815260200160028201548152505081526020019060010190610554565b50505050905090565b61071781604051602401610695919061133e565b6040516020818303038152906040527f41304fac000000000000000000000000000000000000000000000000000000007bffffffffffffffffffffffffffffffffffffffffffffffffffffffff19166020820180517bffffffffffffffffffffffffffffffffffffffffffffffffffffffff83818316178352505050506108f1565b50565b6107b28282604051602401610730929190611360565b6040516020818303038152906040527fb60e72cc000000000000000000000000000000000000000000000000000000007bffffffffffffffffffffffffffffffffffffffffffffffffffffffff19166020820180517bffffffffffffffffffffffffffffffffffffffffffffffffffffffff83818316178352505050506108f1565b5050565b6108508383836040516024016107ce9392919061139f565b6040516020818303038152906040527fe0e9ad4f000000000000000000000000000000000000000000000000000000007bffffffffffffffffffffffffffffffffffffffffffffffffffffffff19166020820180517bffffffffffffffffffffffffffffffffffffffffffffffffffffffff83818316178352505050506108f1565b505050565b6108ed828260405160240161086b9291906113e4565b6040516020818303038152906040527f319af333000000000000000000000000000000000000000000000000000000007bffffffffffffffffffffffffffffffffffffffffffffffffffffffff19166020820180517bffffffffffffffffffffffffffffffffffffffffffffffffffffffff83818316178352505050506108f1565b5050565b60008151905060006a636f6e736f6c652e6c6f679050602083016000808483855afa5050505050565b6000604051905090565b600080fd5b600080fd5b600080fd5b600080fd5b6000601f19601f8301169050919050565b7f4e487b7100000000000000000000000000000000000000000000000000000000600052604160045260246000fd5b61098182610938565b810181811067ffffffffffffffff821117156109a05761099f610949565b5b80604052505050565b60006109b361091a565b90506109bf8282610978565b919050565b600067ffffffffffffffff8211156109df576109de610949565b5b6109e882610938565b9050602081019050919050565b82818337600083830152505050565b6000610a17610a12846109c4565b6109a9565b905082815260208101848484011115610a3357610a32610933565b5b610a3e8482856109f5565b509392505050565b600082601f830112610a5b57610a5a61092e565b5b8135610a6b848260208601610a04565b91505092915050565b600060208284031215610a8a57610a89610924565b5b600082013567ffffffffffffffff811115610aa857610aa7610929565b5b610ab484828501610a46565b91505092915050565b600073ffffffffffffffffffffffffffffffffffffffff82169050919050565b6000610ae882610abd565b9050919050565b610af881610add565b8114610b0357600080fd5b50565b600081359050610b1581610aef565b92915050565b600060208284031215610b3157610b30610924565b5b6000610b3f84828501610b06565b91505092915050565b6000819050919050565b610b5b81610b48565b82525050565b6000602082019050610b766000830184610b52565b92915050565b600081519050919050565b600082825260208201905092915050565b6000819050602082019050919050565b610bb181610add565b82525050565b600081519050919050565b600082825260208201905092915050565b60005b83811015610bf1578082015181840152602081019050610bd6565b60008484015250505050565b6000610c0882610bb7565b610c128185610bc2565b9350610c22818560208601610bd3565b610c2b81610938565b840191505092915050565b610c3f81610b48565b82525050565b6000606083016000830151610c5d6000860182610ba8565b5060208301518482036020860152610c758282610bfd565b9150506040830151610c8a6040860182610c36565b508091505092915050565b6000610ca18383610c45565b905092915050565b6000602082019050919050565b6000610cc182610b7c565b610ccb8185610b87565b935083602082028501610cdd85610b98565b8060005b85811015610d195784840389528151610cfa8582610c95565b9450610d0583610ca9565b925060208a01995050600181019050610ce1565b50829750879550505050505092915050565b60006020820190508181036000830152610d458184610cb6565b905092915050565b7f4e487b7100000000000000000000000000000000000000000000000000000000600052601160045260246000fd5b6000610d8782610b48565b9150610d9283610b48565b9250828201905080821115610daa57610da9610d4d565b5b92915050565b600082825260208201905092915050565b7f5761697420333073656300000000000000000000000000000000000000000000600082015250565b6000610df7600a83610db0565b9150610e0282610dc1565b602082019050919050565b60006020820190508181036000830152610e2681610dea565b9050919050565b7f4e487b7100000000000000000000000000000000000000000000000000000000600052601260045260246000fd5b6000610e6782610b48565b9150610e7283610b48565b925082610e8257610e81610e2d565b5b828206905092915050565b7f4e487b7100000000000000000000000000000000000000000000000000000000600052602260045260246000fd5b60006002820490506001821680610ed457607f821691505b602082108103610ee757610ee6610e8d565b5b50919050565b60008190508160005260206000209050919050565b60006020601f8301049050919050565b600082821b905092915050565b600060088302610f4f7fffffffffffffffffffffffffffffffffffffffffffffffffffffffffffffffff82610f12565b610f598683610f12565b95508019841693508086168417925050509392505050565b6000819050919050565b6000610f96610f91610f8c84610b48565b610f71565b610b48565b9050919050565b6000819050919050565b610fb083610f7b565b610fc4610fbc82610f9d565b848454610f1f565b825550505050565b600090565b610fd9610fcc565b610fe4818484610fa7565b505050565b5b8181101561100857610ffd600082610fd1565b600181019050610fea565b5050565b601f82111561104d5761101e81610eed565b61102784610f02565b81016020851015611036578190505b61104a61104285610f02565b830182610fe9565b50505b505050565b600082821c905092915050565b600061107060001984600802611052565b1980831691505092915050565b6000611089838361105f565b9150826002028217905092915050565b6110a282610bb7565b67ffffffffffffffff8111156110bb576110ba610949565b5b6110c58254610ebc565b6110d082828561100c565b600060209050601f83116001811461110357600084156110f1578287015190505b6110fb858261107d565b865550611163565b601f19841661111186610eed565b60005b8281101561113957848901518255600182019150602085019450602081019050611114565b868310156111565784890151611152601f89168261105f565b8355505b6001600288020188555050505b505050505050565b7f547279696e6720746f207769746864726177206d6f7265206d6f6e657920746860008201527f616e2074686520636f6e7472616374206861732e000000000000000000000000602082015250565b60006111c7603483610db0565b91506111d28261116b565b604082019050919050565b600060208201905081810360008301526111f6816111ba565b9050919050565b600081905092915050565b50565b60006112186000836111fd565b915061122382611208565b600082019050919050565b60006112398261120b565b9150819050919050565b7f4661696c656420746f207769746864726177206d6f6e65792066726f6d20636f60008201527f6e74726163742e00000000000000000000000000000000000000000000000000602082015250565b600061129f602783610db0565b91506112aa82611243565b604082019050919050565b600060208201905081810360008301526112ce81611292565b9050919050565b60006112e082610bb7565b6112ea8185610db0565b93506112fa818560208601610bd3565b61130381610938565b840191505092915050565b60006040820190506113236000830185610b52565b818103602083015261133581846112d5565b90509392505050565b6000602082019050818103600083015261135881846112d5565b905092915050565b6000604082019050818103600083015261137a81856112d5565b90506113896020830184610b52565b9392505050565b61139981610add565b82525050565b600060608201905081810360008301526113b981866112d5565b90506113c86020830185611390565b81810360408301526113da81846112d5565b9050949350505050565b600060408201905081810360008301526113fe81856112d5565b905061140d6020830184611390565b939250505056fea26469706673582212209ccc23bba4c304c4d535d394e5741b2c65e4537c2051ba6dd0bf3aeb3b76b67064736f6c63430008110033",
  "linkReferences": {},
  "deployedLinkReferences": {}
}